{
	"contracts/1_Storage.sol": {
		"platziProject": {
			"abi": [
				{
					"inputs": [],
					"stateMutability": "nonpayable",
					"type": "constructor"
				},
				{
					"inputs": [
						{
							"internalType": "bool",
							"name": "change",
							"type": "bool"
						}
					],
					"name": "changeProjectState",
					"outputs": [],
					"stateMutability": "nonpayable",
					"type": "function"
				},
				{
					"inputs": [],
					"name": "fundproject",
					"outputs": [],
					"stateMutability": "payable",
					"type": "function"
				},
				{
					"inputs": [
						{
							"internalType": "uint256",
							"name": "goal",
							"type": "uint256"
						}
					],
					"name": "setGoal",
					"outputs": [],
					"stateMutability": "nonpayable",
					"type": "function"
				},
				{
					"inputs": [],
					"name": "viewGoal",
					"outputs": [
						{
							"internalType": "uint256",
							"name": "",
							"type": "uint256"
						}
					],
					"stateMutability": "view",
					"type": "function"
				},
				{
					"inputs": [],
					"name": "viewRemaining",
					"outputs": [
						{
							"internalType": "uint256",
							"name": "",
							"type": "uint256"
						}
					],
					"stateMutability": "view",
					"type": "function"
				}
			],
			"devdoc": {
				"kind": "dev",
				"methods": {},
				"version": 1
			},
			"evm": {
				"assembly": "    /* \"contracts/1_Storage.sol\":72:2569  contract platziProject{... */\n  mstore(0x40, 0x80)\n    /* \"contracts/1_Storage.sol\":382:505  constructor(){... */\n  callvalue\n  dup1\n  iszero\n  tag_1\n  jumpi\n  0x00\n  dup1\n  revert\ntag_1:\n  pop\n    /* \"contracts/1_Storage.sol\":413:414  0 */\n  0x00\n    /* \"contracts/1_Storage.sol\":406:410  Goal */\n  0x01\n    /* \"contracts/1_Storage.sol\":406:414  Goal = 0 */\n  dup2\n  swap1\n  sstore\n  pop\n    /* \"contracts/1_Storage.sol\":433:443  msg.sender */\n  caller\n    /* \"contracts/1_Storage.sol\":425:430  owner */\n  0x03\n  0x00\n    /* \"contracts/1_Storage.sol\":425:443  owner = msg.sender */\n  0x0100\n  exp\n  dup2\n  sload\n  dup2\n  0xffffffffffffffffffffffffffffffffffffffff\n  mul\n  not\n  and\n  swap1\n  dup4\n  0xffffffffffffffffffffffffffffffffffffffff\n  and\n  mul\n  or\n  swap1\n  sstore\n  pop\n    /* \"contracts/1_Storage.sol\":468:469  0 */\n  0x00\n    /* \"contracts/1_Storage.sol\":454:465  totalFunded */\n  0x02\n    /* \"contracts/1_Storage.sol\":454:469  totalFunded = 0 */\n  dup2\n  swap1\n  sstore\n  pop\n    /* \"contracts/1_Storage.sol\":493:497  true */\n  0x01\n    /* \"contracts/1_Storage.sol\":480:490  isFundable */\n  0x00\n  dup1\n    /* \"contracts/1_Storage.sol\":480:497  isFundable = true */\n  0x0100\n  exp\n  dup2\n  sload\n  dup2\n  0xff\n  mul\n  not\n  and\n  swap1\n  dup4\n  iszero\n  iszero\n  mul\n  or\n  swap1\n  sstore\n  pop\n    /* \"contracts/1_Storage.sol\":72:2569  contract platziProject{... */\n  dataSize(sub_0)\n  dup1\n  dataOffset(sub_0)\n  0x00\n  codecopy\n  0x00\n  return\nstop\n\nsub_0: assembly {\n        /* \"contracts/1_Storage.sol\":72:2569  contract platziProject{... */\n      mstore(0x40, 0x80)\n      jumpi(tag_1, lt(calldatasize, 0x04))\n      shr(0xe0, calldataload(0x00))\n      dup1\n      0x320d7c85\n      eq\n      tag_2\n      jumpi\n      dup1\n      0x4b29c448\n      eq\n      tag_3\n      jumpi\n      dup1\n      0x9aeb5d48\n      eq\n      tag_4\n      jumpi\n      dup1\n      0xf2777e55\n      eq\n      tag_5\n      jumpi\n      dup1\n      0xf58754f8\n      eq\n      tag_6\n      jumpi\n    tag_1:\n      0x00\n      dup1\n      revert\n        /* \"contracts/1_Storage.sol\":1308:2245  function fundproject() public payable {... */\n    tag_2:\n      tag_7\n      tag_8\n      jump\t// in\n    tag_7:\n      stop\n        /* \"contracts/1_Storage.sol\":972:1050  function setGoal(uint256 goal) public onlyOwner {... */\n    tag_3:\n      callvalue\n      dup1\n      iszero\n      tag_9\n      jumpi\n      0x00\n      dup1\n      revert\n    tag_9:\n      pop\n      tag_10\n      0x04\n      dup1\n      calldatasize\n      sub\n      dup2\n      add\n      swap1\n      tag_11\n      swap2\n      swap1\n      tag_12\n      jump\t// in\n    tag_11:\n      tag_13\n      jump\t// in\n    tag_10:\n      stop\n        /* \"contracts/1_Storage.sol\":2413:2560  function viewRemaining() public view returns(uint256){... */\n    tag_4:\n      callvalue\n      dup1\n      iszero\n      tag_14\n      jumpi\n      0x00\n      dup1\n      revert\n    tag_14:\n      pop\n      tag_15\n      tag_16\n      jump\t// in\n    tag_15:\n      mload(0x40)\n      tag_17\n      swap2\n      swap1\n      tag_18\n      jump\t// in\n    tag_17:\n      mload(0x40)\n      dup1\n      swap2\n      sub\n      swap1\n      return\n        /* \"contracts/1_Storage.sol\":1062:1141  function viewGoal() public view returns(uint256) {... */\n    tag_5:\n      callvalue\n      dup1\n      iszero\n      tag_19\n      jumpi\n      0x00\n      dup1\n      revert\n    tag_19:\n      pop\n      tag_20\n      tag_21\n      jump\t// in\n    tag_20:\n      mload(0x40)\n      tag_22\n      swap2\n      swap1\n      tag_18\n      jump\t// in\n    tag_22:\n      mload(0x40)\n      dup1\n      swap2\n      sub\n      swap1\n      return\n        /* \"contracts/1_Storage.sol\":1153:1247  function changeProjectState(bool change)public onlyOwner{... */\n    tag_6:\n      callvalue\n      dup1\n      iszero\n      tag_23\n      jumpi\n      0x00\n      dup1\n      revert\n    tag_23:\n      pop\n      tag_24\n      0x04\n      dup1\n      calldatasize\n      sub\n      dup2\n      add\n      swap1\n      tag_25\n      swap2\n      swap1\n      tag_26\n      jump\t// in\n    tag_25:\n      tag_27\n      jump\t// in\n    tag_24:\n      stop\n        /* \"contracts/1_Storage.sol\":1308:2245  function fundproject() public payable {... */\n    tag_8:\n        /* \"contracts/1_Storage.sol\":1486:1496  isFundable */\n      0x00\n      dup1\n      sload\n      swap1\n      0x0100\n      exp\n      swap1\n      div\n      0xff\n      and\n        /* \"contracts/1_Storage.sol\":1478:1567  require(isFundable, \"Owner has decided to stop this fundraising for a while. Stay tuned\") */\n      tag_29\n      jumpi\n      mload(0x40)\n      0x08c379a000000000000000000000000000000000000000000000000000000000\n      dup2\n      mstore\n      0x04\n      add\n      tag_30\n      swap1\n      tag_31\n      jump\t// in\n    tag_30:\n      mload(0x40)\n      dup1\n      swap2\n      sub\n      swap1\n      revert\n    tag_29:\n        /* \"contracts/1_Storage.sol\":1675:1679  Goal */\n      sload(0x01)\n        /* \"contracts/1_Storage.sol\":1661:1672  totalFunded */\n      sload(0x02)\n        /* \"contracts/1_Storage.sol\":1661:1679  totalFunded < Goal */\n      lt\n        /* \"contracts/1_Storage.sol\":1653:1747  require(totalFunded < Goal, \"Goal already achieved so you are  not able to fund this anymore\") */\n      tag_32\n      jumpi\n      mload(0x40)\n      0x08c379a000000000000000000000000000000000000000000000000000000000\n      dup2\n      mstore\n      0x04\n      add\n      tag_33\n      swap1\n      tag_34\n      jump\t// in\n    tag_33:\n      mload(0x40)\n      dup1\n      swap2\n      sub\n      swap1\n      revert\n    tag_32:\n        /* \"contracts/1_Storage.sol\":1873:1874  0 */\n      0x00\n        /* \"contracts/1_Storage.sol\":1855:1864  msg.value */\n      callvalue\n        /* \"contracts/1_Storage.sol\":1855:1875  msg.value != uint(0) */\n      eq\n      iszero\n        /* \"contracts/1_Storage.sol\":1847:1935  require(msg.value != uint(0), \"Please add some funds to  contribuite to Platzi project\") */\n      tag_35\n      jumpi\n      mload(0x40)\n      0x08c379a000000000000000000000000000000000000000000000000000000000\n      dup2\n      mstore\n      0x04\n      add\n      tag_36\n      swap1\n      tag_37\n      jump\t// in\n    tag_36:\n      mload(0x40)\n      dup1\n      swap2\n      sub\n      swap1\n      revert\n    tag_35:\n        /* \"contracts/1_Storage.sol\":2069:2073  Goal */\n      sload(0x01)\n        /* \"contracts/1_Storage.sol\":2056:2065  msg.value */\n      callvalue\n        /* \"contracts/1_Storage.sol\":2042:2053  totalFunded */\n      sload(0x02)\n        /* \"contracts/1_Storage.sol\":2042:2065  totalFunded + msg.value */\n      tag_38\n      swap2\n      swap1\n      tag_39\n      jump\t// in\n    tag_38:\n        /* \"contracts/1_Storage.sol\":2042:2073  totalFunded + msg.value <= Goal */\n      gt\n      iszero\n        /* \"contracts/1_Storage.sol\":2034:2138  require(totalFunded + msg.value <= Goal,\"unable to add more funds, check amount remaining for our goal\") */\n      tag_40\n      jumpi\n      mload(0x40)\n      0x08c379a000000000000000000000000000000000000000000000000000000000\n      dup2\n      mstore\n      0x04\n      add\n      tag_41\n      swap1\n      tag_42\n      jump\t// in\n    tag_41:\n      mload(0x40)\n      dup1\n      swap2\n      sub\n      swap1\n      revert\n    tag_40:\n        /* \"contracts/1_Storage.sol\":2228:2237  msg.value */\n      callvalue\n        /* \"contracts/1_Storage.sol\":2213:2224  totalFunded */\n      0x02\n      0x00\n        /* \"contracts/1_Storage.sol\":2213:2237  totalFunded += msg.value */\n      dup3\n      dup3\n      sload\n      tag_43\n      swap2\n      swap1\n      tag_39\n      jump\t// in\n    tag_43:\n      swap3\n      pop\n      pop\n      dup2\n      swap1\n      sstore\n      pop\n        /* \"contracts/1_Storage.sol\":1308:2245  function fundproject() public payable {... */\n      jump\t// out\n        /* \"contracts/1_Storage.sol\":972:1050  function setGoal(uint256 goal) public onlyOwner {... */\n    tag_13:\n        /* \"contracts/1_Storage.sol\":770:775  owner */\n      0x03\n      0x00\n      swap1\n      sload\n      swap1\n      0x0100\n      exp\n      swap1\n      div\n      0xffffffffffffffffffffffffffffffffffffffff\n      and\n        /* \"contracts/1_Storage.sol\":756:775  msg.sender == owner */\n      0xffffffffffffffffffffffffffffffffffffffff\n      and\n        /* \"contracts/1_Storage.sol\":756:766  msg.sender */\n      caller\n        /* \"contracts/1_Storage.sol\":756:775  msg.sender == owner */\n      0xffffffffffffffffffffffffffffffffffffffff\n      and\n      eq\n        /* \"contracts/1_Storage.sol\":748:843  require(msg.sender == owner, \"You need to be thhe owner from this contract to change the goal\") */\n      tag_45\n      jumpi\n      mload(0x40)\n      0x08c379a000000000000000000000000000000000000000000000000000000000\n      dup2\n      mstore\n      0x04\n      add\n      tag_46\n      swap1\n      tag_47\n      jump\t// in\n    tag_46:\n      mload(0x40)\n      dup1\n      swap2\n      sub\n      swap1\n      revert\n    tag_45:\n        /* \"contracts/1_Storage.sol\":1038:1042  goal */\n      dup1\n        /* \"contracts/1_Storage.sol\":1031:1035  Goal */\n      0x01\n        /* \"contracts/1_Storage.sol\":1031:1042  Goal = goal */\n      dup2\n      swap1\n      sstore\n      pop\n        /* \"contracts/1_Storage.sol\":972:1050  function setGoal(uint256 goal) public onlyOwner {... */\n      pop\n      jump\t// out\n        /* \"contracts/1_Storage.sol\":2413:2560  function viewRemaining() public view returns(uint256){... */\n    tag_16:\n        /* \"contracts/1_Storage.sol\":2458:2465  uint256 */\n      0x00\n        /* \"contracts/1_Storage.sol\":2477:2499  uint256 remainingFunds */\n      dup1\n        /* \"contracts/1_Storage.sol\":2509:2520  totalFunded */\n      sload(0x02)\n        /* \"contracts/1_Storage.sol\":2502:2506  Goal */\n      sload(0x01)\n        /* \"contracts/1_Storage.sol\":2502:2520  Goal - totalFunded */\n      tag_50\n      swap2\n      swap1\n      tag_51\n      jump\t// in\n    tag_50:\n        /* \"contracts/1_Storage.sol\":2477:2520  uint256 remainingFunds = Goal - totalFunded */\n      swap1\n      pop\n        /* \"contracts/1_Storage.sol\":2538:2552  remainingFunds */\n      dup1\n        /* \"contracts/1_Storage.sol\":2531:2552  return remainingFunds */\n      swap2\n      pop\n      pop\n        /* \"contracts/1_Storage.sol\":2413:2560  function viewRemaining() public view returns(uint256){... */\n      swap1\n      jump\t// out\n        /* \"contracts/1_Storage.sol\":1062:1141  function viewGoal() public view returns(uint256) {... */\n    tag_21:\n        /* \"contracts/1_Storage.sol\":1102:1109  uint256 */\n      0x00\n        /* \"contracts/1_Storage.sol\":1129:1133  Goal */\n      sload(0x01)\n        /* \"contracts/1_Storage.sol\":1122:1133  return Goal */\n      swap1\n      pop\n        /* \"contracts/1_Storage.sol\":1062:1141  function viewGoal() public view returns(uint256) {... */\n      swap1\n      jump\t// out\n        /* \"contracts/1_Storage.sol\":1153:1247  function changeProjectState(bool change)public onlyOwner{... */\n    tag_27:\n        /* \"contracts/1_Storage.sol\":770:775  owner */\n      0x03\n      0x00\n      swap1\n      sload\n      swap1\n      0x0100\n      exp\n      swap1\n      div\n      0xffffffffffffffffffffffffffffffffffffffff\n      and\n        /* \"contracts/1_Storage.sol\":756:775  msg.sender == owner */\n      0xffffffffffffffffffffffffffffffffffffffff\n      and\n        /* \"contracts/1_Storage.sol\":756:766  msg.sender */\n      caller\n        /* \"contracts/1_Storage.sol\":756:775  msg.sender == owner */\n      0xffffffffffffffffffffffffffffffffffffffff\n      and\n      eq\n        /* \"contracts/1_Storage.sol\":748:843  require(msg.sender == owner, \"You need to be thhe owner from this contract to change the goal\") */\n      tag_54\n      jumpi\n      mload(0x40)\n      0x08c379a000000000000000000000000000000000000000000000000000000000\n      dup2\n      mstore\n      0x04\n      add\n      tag_55\n      swap1\n      tag_47\n      jump\t// in\n    tag_55:\n      mload(0x40)\n      dup1\n      swap2\n      sub\n      swap1\n      revert\n    tag_54:\n        /* \"contracts/1_Storage.sol\":1233:1239  change */\n      dup1\n        /* \"contracts/1_Storage.sol\":1220:1230  isFundable */\n      0x00\n      dup1\n        /* \"contracts/1_Storage.sol\":1220:1239  isFundable = change */\n      0x0100\n      exp\n      dup2\n      sload\n      dup2\n      0xff\n      mul\n      not\n      and\n      swap1\n      dup4\n      iszero\n      iszero\n      mul\n      or\n      swap1\n      sstore\n      pop\n        /* \"contracts/1_Storage.sol\":1153:1247  function changeProjectState(bool change)public onlyOwner{... */\n      pop\n      jump\t// out\n        /* \"#utility.yul\":7:140   */\n    tag_58:\n        /* \"#utility.yul\":50:55   */\n      0x00\n        /* \"#utility.yul\":88:94   */\n      dup2\n        /* \"#utility.yul\":75:95   */\n      calldataload\n        /* \"#utility.yul\":66:95   */\n      swap1\n      pop\n        /* \"#utility.yul\":104:134   */\n      tag_60\n        /* \"#utility.yul\":128:133   */\n      dup2\n        /* \"#utility.yul\":104:134   */\n      tag_61\n      jump\t// in\n    tag_60:\n        /* \"#utility.yul\":7:140   */\n      swap3\n      swap2\n      pop\n      pop\n      jump\t// out\n        /* \"#utility.yul\":146:285   */\n    tag_62:\n        /* \"#utility.yul\":192:197   */\n      0x00\n        /* \"#utility.yul\":230:236   */\n      dup2\n        /* \"#utility.yul\":217:237   */\n      calldataload\n        /* \"#utility.yul\":208:237   */\n      swap1\n      pop\n        /* \"#utility.yul\":246:279   */\n      tag_64\n        /* \"#utility.yul\":273:278   */\n      dup2\n        /* \"#utility.yul\":246:279   */\n      tag_65\n      jump\t// in\n    tag_64:\n        /* \"#utility.yul\":146:285   */\n      swap3\n      swap2\n      pop\n      pop\n      jump\t// out\n        /* \"#utility.yul\":291:614   */\n    tag_26:\n        /* \"#utility.yul\":347:353   */\n      0x00\n        /* \"#utility.yul\":396:398   */\n      0x20\n        /* \"#utility.yul\":384:393   */\n      dup3\n        /* \"#utility.yul\":375:382   */\n      dup5\n        /* \"#utility.yul\":371:394   */\n      sub\n        /* \"#utility.yul\":367:399   */\n      slt\n        /* \"#utility.yul\":364:483   */\n      iszero\n      tag_67\n      jumpi\n        /* \"#utility.yul\":402:481   */\n      tag_68\n      tag_69\n      jump\t// in\n    tag_68:\n        /* \"#utility.yul\":364:483   */\n    tag_67:\n        /* \"#utility.yul\":522:523   */\n      0x00\n        /* \"#utility.yul\":547:597   */\n      tag_70\n        /* \"#utility.yul\":589:596   */\n      dup5\n        /* \"#utility.yul\":580:586   */\n      dup3\n        /* \"#utility.yul\":569:578   */\n      dup6\n        /* \"#utility.yul\":565:587   */\n      add\n        /* \"#utility.yul\":547:597   */\n      tag_58\n      jump\t// in\n    tag_70:\n        /* \"#utility.yul\":537:597   */\n      swap2\n      pop\n        /* \"#utility.yul\":493:607   */\n      pop\n        /* \"#utility.yul\":291:614   */\n      swap3\n      swap2\n      pop\n      pop\n      jump\t// out\n        /* \"#utility.yul\":620:949   */\n    tag_12:\n        /* \"#utility.yul\":679:685   */\n      0x00\n        /* \"#utility.yul\":728:730   */\n      0x20\n        /* \"#utility.yul\":716:725   */\n      dup3\n        /* \"#utility.yul\":707:714   */\n      dup5\n        /* \"#utility.yul\":703:726   */\n      sub\n        /* \"#utility.yul\":699:731   */\n      slt\n        /* \"#utility.yul\":696:815   */\n      iszero\n      tag_72\n      jumpi\n        /* \"#utility.yul\":734:813   */\n      tag_73\n      tag_69\n      jump\t// in\n    tag_73:\n        /* \"#utility.yul\":696:815   */\n    tag_72:\n        /* \"#utility.yul\":854:855   */\n      0x00\n        /* \"#utility.yul\":879:932   */\n      tag_74\n        /* \"#utility.yul\":924:931   */\n      dup5\n        /* \"#utility.yul\":915:921   */\n      dup3\n        /* \"#utility.yul\":904:913   */\n      dup6\n        /* \"#utility.yul\":900:922   */\n      add\n        /* \"#utility.yul\":879:932   */\n      tag_62\n      jump\t// in\n    tag_74:\n        /* \"#utility.yul\":869:932   */\n      swap2\n      pop\n        /* \"#utility.yul\":825:942   */\n      pop\n        /* \"#utility.yul\":620:949   */\n      swap3\n      swap2\n      pop\n      pop\n      jump\t// out\n        /* \"#utility.yul\":955:1321   */\n    tag_75:\n        /* \"#utility.yul\":1097:1100   */\n      0x00\n        /* \"#utility.yul\":1118:1185   */\n      tag_77\n        /* \"#utility.yul\":1182:1184   */\n      0x3f\n        /* \"#utility.yul\":1177:1180   */\n      dup4\n        /* \"#utility.yul\":1118:1185   */\n      tag_78\n      jump\t// in\n    tag_77:\n        /* \"#utility.yul\":1111:1185   */\n      swap2\n      pop\n        /* \"#utility.yul\":1194:1287   */\n      tag_79\n        /* \"#utility.yul\":1283:1286   */\n      dup3\n        /* \"#utility.yul\":1194:1287   */\n      tag_80\n      jump\t// in\n    tag_79:\n        /* \"#utility.yul\":1312:1314   */\n      0x40\n        /* \"#utility.yul\":1307:1310   */\n      dup3\n        /* \"#utility.yul\":1303:1315   */\n      add\n        /* \"#utility.yul\":1296:1315   */\n      swap1\n      pop\n        /* \"#utility.yul\":955:1321   */\n      swap2\n      swap1\n      pop\n      jump\t// out\n        /* \"#utility.yul\":1327:1693   */\n    tag_81:\n        /* \"#utility.yul\":1469:1472   */\n      0x00\n        /* \"#utility.yul\":1490:1557   */\n      tag_83\n        /* \"#utility.yul\":1554:1556   */\n      0x3f\n        /* \"#utility.yul\":1549:1552   */\n      dup4\n        /* \"#utility.yul\":1490:1557   */\n      tag_78\n      jump\t// in\n    tag_83:\n        /* \"#utility.yul\":1483:1557   */\n      swap2\n      pop\n        /* \"#utility.yul\":1566:1659   */\n      tag_84\n        /* \"#utility.yul\":1655:1658   */\n      dup3\n        /* \"#utility.yul\":1566:1659   */\n      tag_85\n      jump\t// in\n    tag_84:\n        /* \"#utility.yul\":1684:1686   */\n      0x40\n        /* \"#utility.yul\":1679:1682   */\n      dup3\n        /* \"#utility.yul\":1675:1687   */\n      add\n        /* \"#utility.yul\":1668:1687   */\n      swap1\n      pop\n        /* \"#utility.yul\":1327:1693   */\n      swap2\n      swap1\n      pop\n      jump\t// out\n        /* \"#utility.yul\":1699:2065   */\n    tag_86:\n        /* \"#utility.yul\":1841:1844   */\n      0x00\n        /* \"#utility.yul\":1862:1929   */\n      tag_88\n        /* \"#utility.yul\":1926:1928   */\n      0x42\n        /* \"#utility.yul\":1921:1924   */\n      dup4\n        /* \"#utility.yul\":1862:1929   */\n      tag_78\n      jump\t// in\n    tag_88:\n        /* \"#utility.yul\":1855:1929   */\n      swap2\n      pop\n        /* \"#utility.yul\":1938:2031   */\n      tag_89\n        /* \"#utility.yul\":2027:2030   */\n      dup3\n        /* \"#utility.yul\":1938:2031   */\n      tag_90\n      jump\t// in\n    tag_89:\n        /* \"#utility.yul\":2056:2058   */\n      0x60\n        /* \"#utility.yul\":2051:2054   */\n      dup3\n        /* \"#utility.yul\":2047:2059   */\n      add\n        /* \"#utility.yul\":2040:2059   */\n      swap1\n      pop\n        /* \"#utility.yul\":1699:2065   */\n      swap2\n      swap1\n      pop\n      jump\t// out\n        /* \"#utility.yul\":2071:2437   */\n    tag_91:\n        /* \"#utility.yul\":2213:2216   */\n      0x00\n        /* \"#utility.yul\":2234:2301   */\n      tag_93\n        /* \"#utility.yul\":2298:2300   */\n      0x3d\n        /* \"#utility.yul\":2293:2296   */\n      dup4\n        /* \"#utility.yul\":2234:2301   */\n      tag_78\n      jump\t// in\n    tag_93:\n        /* \"#utility.yul\":2227:2301   */\n      swap2\n      pop\n        /* \"#utility.yul\":2310:2403   */\n      tag_94\n        /* \"#utility.yul\":2399:2402   */\n      dup3\n        /* \"#utility.yul\":2310:2403   */\n      tag_95\n      jump\t// in\n    tag_94:\n        /* \"#utility.yul\":2428:2430   */\n      0x40\n        /* \"#utility.yul\":2423:2426   */\n      dup3\n        /* \"#utility.yul\":2419:2431   */\n      add\n        /* \"#utility.yul\":2412:2431   */\n      swap1\n      pop\n        /* \"#utility.yul\":2071:2437   */\n      swap2\n      swap1\n      pop\n      jump\t// out\n        /* \"#utility.yul\":2443:2809   */\n    tag_96:\n        /* \"#utility.yul\":2585:2588   */\n      0x00\n        /* \"#utility.yul\":2606:2673   */\n      tag_98\n        /* \"#utility.yul\":2670:2672   */\n      0x37\n        /* \"#utility.yul\":2665:2668   */\n      dup4\n        /* \"#utility.yul\":2606:2673   */\n      tag_78\n      jump\t// in\n    tag_98:\n        /* \"#utility.yul\":2599:2673   */\n      swap2\n      pop\n        /* \"#utility.yul\":2682:2775   */\n      tag_99\n        /* \"#utility.yul\":2771:2774   */\n      dup3\n        /* \"#utility.yul\":2682:2775   */\n      tag_100\n      jump\t// in\n    tag_99:\n        /* \"#utility.yul\":2800:2802   */\n      0x40\n        /* \"#utility.yul\":2795:2798   */\n      dup3\n        /* \"#utility.yul\":2791:2803   */\n      add\n        /* \"#utility.yul\":2784:2803   */\n      swap1\n      pop\n        /* \"#utility.yul\":2443:2809   */\n      swap2\n      swap1\n      pop\n      jump\t// out\n        /* \"#utility.yul\":2815:2933   */\n    tag_101:\n        /* \"#utility.yul\":2902:2926   */\n      tag_103\n        /* \"#utility.yul\":2920:2925   */\n      dup2\n        /* \"#utility.yul\":2902:2926   */\n      tag_104\n      jump\t// in\n    tag_103:\n        /* \"#utility.yul\":2897:2900   */\n      dup3\n        /* \"#utility.yul\":2890:2927   */\n      mstore\n        /* \"#utility.yul\":2815:2933   */\n      pop\n      pop\n      jump\t// out\n        /* \"#utility.yul\":2939:3358   */\n    tag_47:\n        /* \"#utility.yul\":3105:3109   */\n      0x00\n        /* \"#utility.yul\":3143:3145   */\n      0x20\n        /* \"#utility.yul\":3132:3141   */\n      dup3\n        /* \"#utility.yul\":3128:3146   */\n      add\n        /* \"#utility.yul\":3120:3146   */\n      swap1\n      pop\n        /* \"#utility.yul\":3192:3201   */\n      dup2\n        /* \"#utility.yul\":3186:3190   */\n      dup2\n        /* \"#utility.yul\":3182:3202   */\n      sub\n        /* \"#utility.yul\":3178:3179   */\n      0x00\n        /* \"#utility.yul\":3167:3176   */\n      dup4\n        /* \"#utility.yul\":3163:3180   */\n      add\n        /* \"#utility.yul\":3156:3203   */\n      mstore\n        /* \"#utility.yul\":3220:3351   */\n      tag_106\n        /* \"#utility.yul\":3346:3350   */\n      dup2\n        /* \"#utility.yul\":3220:3351   */\n      tag_75\n      jump\t// in\n    tag_106:\n        /* \"#utility.yul\":3212:3351   */\n      swap1\n      pop\n        /* \"#utility.yul\":2939:3358   */\n      swap2\n      swap1\n      pop\n      jump\t// out\n        /* \"#utility.yul\":3364:3783   */\n    tag_34:\n        /* \"#utility.yul\":3530:3534   */\n      0x00\n        /* \"#utility.yul\":3568:3570   */\n      0x20\n        /* \"#utility.yul\":3557:3566   */\n      dup3\n        /* \"#utility.yul\":3553:3571   */\n      add\n        /* \"#utility.yul\":3545:3571   */\n      swap1\n      pop\n        /* \"#utility.yul\":3617:3626   */\n      dup2\n        /* \"#utility.yul\":3611:3615   */\n      dup2\n        /* \"#utility.yul\":3607:3627   */\n      sub\n        /* \"#utility.yul\":3603:3604   */\n      0x00\n        /* \"#utility.yul\":3592:3601   */\n      dup4\n        /* \"#utility.yul\":3588:3605   */\n      add\n        /* \"#utility.yul\":3581:3628   */\n      mstore\n        /* \"#utility.yul\":3645:3776   */\n      tag_108\n        /* \"#utility.yul\":3771:3775   */\n      dup2\n        /* \"#utility.yul\":3645:3776   */\n      tag_81\n      jump\t// in\n    tag_108:\n        /* \"#utility.yul\":3637:3776   */\n      swap1\n      pop\n        /* \"#utility.yul\":3364:3783   */\n      swap2\n      swap1\n      pop\n      jump\t// out\n        /* \"#utility.yul\":3789:4208   */\n    tag_31:\n        /* \"#utility.yul\":3955:3959   */\n      0x00\n        /* \"#utility.yul\":3993:3995   */\n      0x20\n        /* \"#utility.yul\":3982:3991   */\n      dup3\n        /* \"#utility.yul\":3978:3996   */\n      add\n        /* \"#utility.yul\":3970:3996   */\n      swap1\n      pop\n        /* \"#utility.yul\":4042:4051   */\n      dup2\n        /* \"#utility.yul\":4036:4040   */\n      dup2\n        /* \"#utility.yul\":4032:4052   */\n      sub\n        /* \"#utility.yul\":4028:4029   */\n      0x00\n        /* \"#utility.yul\":4017:4026   */\n      dup4\n        /* \"#utility.yul\":4013:4030   */\n      add\n        /* \"#utility.yul\":4006:4053   */\n      mstore\n        /* \"#utility.yul\":4070:4201   */\n      tag_110\n        /* \"#utility.yul\":4196:4200   */\n      dup2\n        /* \"#utility.yul\":4070:4201   */\n      tag_86\n      jump\t// in\n    tag_110:\n        /* \"#utility.yul\":4062:4201   */\n      swap1\n      pop\n        /* \"#utility.yul\":3789:4208   */\n      swap2\n      swap1\n      pop\n      jump\t// out\n        /* \"#utility.yul\":4214:4633   */\n    tag_42:\n        /* \"#utility.yul\":4380:4384   */\n      0x00\n        /* \"#utility.yul\":4418:4420   */\n      0x20\n        /* \"#utility.yul\":4407:4416   */\n      dup3\n        /* \"#utility.yul\":4403:4421   */\n      add\n        /* \"#utility.yul\":4395:4421   */\n      swap1\n      pop\n        /* \"#utility.yul\":4467:4476   */\n      dup2\n        /* \"#utility.yul\":4461:4465   */\n      dup2\n        /* \"#utility.yul\":4457:4477   */\n      sub\n        /* \"#utility.yul\":4453:4454   */\n      0x00\n        /* \"#utility.yul\":4442:4451   */\n      dup4\n        /* \"#utility.yul\":4438:4455   */\n      add\n        /* \"#utility.yul\":4431:4478   */\n      mstore\n        /* \"#utility.yul\":4495:4626   */\n      tag_112\n        /* \"#utility.yul\":4621:4625   */\n      dup2\n        /* \"#utility.yul\":4495:4626   */\n      tag_91\n      jump\t// in\n    tag_112:\n        /* \"#utility.yul\":4487:4626   */\n      swap1\n      pop\n        /* \"#utility.yul\":4214:4633   */\n      swap2\n      swap1\n      pop\n      jump\t// out\n        /* \"#utility.yul\":4639:5058   */\n    tag_37:\n        /* \"#utility.yul\":4805:4809   */\n      0x00\n        /* \"#utility.yul\":4843:4845   */\n      0x20\n        /* \"#utility.yul\":4832:4841   */\n      dup3\n        /* \"#utility.yul\":4828:4846   */\n      add\n        /* \"#utility.yul\":4820:4846   */\n      swap1\n      pop\n        /* \"#utility.yul\":4892:4901   */\n      dup2\n        /* \"#utility.yul\":4886:4890   */\n      dup2\n        /* \"#utility.yul\":4882:4902   */\n      sub\n        /* \"#utility.yul\":4878:4879   */\n      0x00\n        /* \"#utility.yul\":4867:4876   */\n      dup4\n        /* \"#utility.yul\":4863:4880   */\n      add\n        /* \"#utility.yul\":4856:4903   */\n      mstore\n        /* \"#utility.yul\":4920:5051   */\n      tag_114\n        /* \"#utility.yul\":5046:5050   */\n      dup2\n        /* \"#utility.yul\":4920:5051   */\n      tag_96\n      jump\t// in\n    tag_114:\n        /* \"#utility.yul\":4912:5051   */\n      swap1\n      pop\n        /* \"#utility.yul\":4639:5058   */\n      swap2\n      swap1\n      pop\n      jump\t// out\n        /* \"#utility.yul\":5064:5286   */\n    tag_18:\n        /* \"#utility.yul\":5157:5161   */\n      0x00\n        /* \"#utility.yul\":5195:5197   */\n      0x20\n        /* \"#utility.yul\":5184:5193   */\n      dup3\n        /* \"#utility.yul\":5180:5198   */\n      add\n        /* \"#utility.yul\":5172:5198   */\n      swap1\n      pop\n        /* \"#utility.yul\":5208:5279   */\n      tag_116\n        /* \"#utility.yul\":5276:5277   */\n      0x00\n        /* \"#utility.yul\":5265:5274   */\n      dup4\n        /* \"#utility.yul\":5261:5278   */\n      add\n        /* \"#utility.yul\":5252:5258   */\n      dup5\n        /* \"#utility.yul\":5208:5279   */\n      tag_101\n      jump\t// in\n    tag_116:\n        /* \"#utility.yul\":5064:5286   */\n      swap3\n      swap2\n      pop\n      pop\n      jump\t// out\n        /* \"#utility.yul\":5373:5542   */\n    tag_78:\n        /* \"#utility.yul\":5457:5468   */\n      0x00\n        /* \"#utility.yul\":5491:5497   */\n      dup3\n        /* \"#utility.yul\":5486:5489   */\n      dup3\n        /* \"#utility.yul\":5479:5498   */\n      mstore\n        /* \"#utility.yul\":5531:5535   */\n      0x20\n        /* \"#utility.yul\":5526:5529   */\n      dup3\n        /* \"#utility.yul\":5522:5536   */\n      add\n        /* \"#utility.yul\":5507:5536   */\n      swap1\n      pop\n        /* \"#utility.yul\":5373:5542   */\n      swap3\n      swap2\n      pop\n      pop\n      jump\t// out\n        /* \"#utility.yul\":5548:5853   */\n    tag_39:\n        /* \"#utility.yul\":5588:5591   */\n      0x00\n        /* \"#utility.yul\":5607:5627   */\n      tag_121\n        /* \"#utility.yul\":5625:5626   */\n      dup3\n        /* \"#utility.yul\":5607:5627   */\n      tag_104\n      jump\t// in\n    tag_121:\n        /* \"#utility.yul\":5602:5627   */\n      swap2\n      pop\n        /* \"#utility.yul\":5641:5661   */\n      tag_122\n        /* \"#utility.yul\":5659:5660   */\n      dup4\n        /* \"#utility.yul\":5641:5661   */\n      tag_104\n      jump\t// in\n    tag_122:\n        /* \"#utility.yul\":5636:5661   */\n      swap3\n      pop\n        /* \"#utility.yul\":5795:5796   */\n      dup3\n        /* \"#utility.yul\":5727:5793   */\n      0xffffffffffffffffffffffffffffffffffffffffffffffffffffffffffffffff\n        /* \"#utility.yul\":5723:5797   */\n      sub\n        /* \"#utility.yul\":5720:5721   */\n      dup3\n        /* \"#utility.yul\":5717:5798   */\n      gt\n        /* \"#utility.yul\":5714:5821   */\n      iszero\n      tag_123\n      jumpi\n        /* \"#utility.yul\":5801:5819   */\n      tag_124\n      tag_125\n      jump\t// in\n    tag_124:\n        /* \"#utility.yul\":5714:5821   */\n    tag_123:\n        /* \"#utility.yul\":5845:5846   */\n      dup3\n        /* \"#utility.yul\":5842:5843   */\n      dup3\n        /* \"#utility.yul\":5838:5847   */\n      add\n        /* \"#utility.yul\":5831:5847   */\n      swap1\n      pop\n        /* \"#utility.yul\":5548:5853   */\n      swap3\n      swap2\n      pop\n      pop\n      jump\t// out\n        /* \"#utility.yul\":5859:6050   */\n    tag_51:\n        /* \"#utility.yul\":5899:5903   */\n      0x00\n        /* \"#utility.yul\":5919:5939   */\n      tag_127\n        /* \"#utility.yul\":5937:5938   */\n      dup3\n        /* \"#utility.yul\":5919:5939   */\n      tag_104\n      jump\t// in\n    tag_127:\n        /* \"#utility.yul\":5914:5939   */\n      swap2\n      pop\n        /* \"#utility.yul\":5953:5973   */\n      tag_128\n        /* \"#utility.yul\":5971:5972   */\n      dup4\n        /* \"#utility.yul\":5953:5973   */\n      tag_104\n      jump\t// in\n    tag_128:\n        /* \"#utility.yul\":5948:5973   */\n      swap3\n      pop\n        /* \"#utility.yul\":5992:5993   */\n      dup3\n        /* \"#utility.yul\":5989:5990   */\n      dup3\n        /* \"#utility.yul\":5986:5994   */\n      lt\n        /* \"#utility.yul\":5983:6017   */\n      iszero\n      tag_129\n      jumpi\n        /* \"#utility.yul\":5997:6015   */\n      tag_130\n      tag_125\n      jump\t// in\n    tag_130:\n        /* \"#utility.yul\":5983:6017   */\n    tag_129:\n        /* \"#utility.yul\":6042:6043   */\n      dup3\n        /* \"#utility.yul\":6039:6040   */\n      dup3\n        /* \"#utility.yul\":6035:6044   */\n      sub\n        /* \"#utility.yul\":6027:6044   */\n      swap1\n      pop\n        /* \"#utility.yul\":5859:6050   */\n      swap3\n      swap2\n      pop\n      pop\n      jump\t// out\n        /* \"#utility.yul\":6056:6146   */\n    tag_131:\n        /* \"#utility.yul\":6090:6097   */\n      0x00\n        /* \"#utility.yul\":6133:6138   */\n      dup2\n        /* \"#utility.yul\":6126:6139   */\n      iszero\n        /* \"#utility.yul\":6119:6140   */\n      iszero\n        /* \"#utility.yul\":6108:6140   */\n      swap1\n      pop\n        /* \"#utility.yul\":6056:6146   */\n      swap2\n      swap1\n      pop\n      jump\t// out\n        /* \"#utility.yul\":6152:6229   */\n    tag_104:\n        /* \"#utility.yul\":6189:6196   */\n      0x00\n        /* \"#utility.yul\":6218:6223   */\n      dup2\n        /* \"#utility.yul\":6207:6223   */\n      swap1\n      pop\n        /* \"#utility.yul\":6152:6229   */\n      swap2\n      swap1\n      pop\n      jump\t// out\n        /* \"#utility.yul\":6235:6415   */\n    tag_125:\n        /* \"#utility.yul\":6283:6360   */\n      0x4e487b7100000000000000000000000000000000000000000000000000000000\n        /* \"#utility.yul\":6280:6281   */\n      0x00\n        /* \"#utility.yul\":6273:6361   */\n      mstore\n        /* \"#utility.yul\":6380:6384   */\n      0x11\n        /* \"#utility.yul\":6377:6378   */\n      0x04\n        /* \"#utility.yul\":6370:6385   */\n      mstore\n        /* \"#utility.yul\":6404:6408   */\n      0x24\n        /* \"#utility.yul\":6401:6402   */\n      0x00\n        /* \"#utility.yul\":6394:6409   */\n      revert\n        /* \"#utility.yul\":6544:6661   */\n    tag_69:\n        /* \"#utility.yul\":6653:6654   */\n      0x00\n        /* \"#utility.yul\":6650:6651   */\n      dup1\n        /* \"#utility.yul\":6643:6655   */\n      revert\n        /* \"#utility.yul\":6667:6917   */\n    tag_80:\n        /* \"#utility.yul\":6807:6841   */\n      0x596f75206e65656420746f2062652074686865206f776e65722066726f6d2074\n        /* \"#utility.yul\":6803:6804   */\n      0x00\n        /* \"#utility.yul\":6795:6801   */\n      dup3\n        /* \"#utility.yul\":6791:6805   */\n      add\n        /* \"#utility.yul\":6784:6842   */\n      mstore\n        /* \"#utility.yul\":6876:6909   */\n      0x68697320636f6e747261637420746f206368616e67652074686520676f616c00\n        /* \"#utility.yul\":6871:6873   */\n      0x20\n        /* \"#utility.yul\":6863:6869   */\n      dup3\n        /* \"#utility.yul\":6859:6874   */\n      add\n        /* \"#utility.yul\":6852:6910   */\n      mstore\n        /* \"#utility.yul\":6667:6917   */\n      pop\n      jump\t// out\n        /* \"#utility.yul\":6923:7173   */\n    tag_85:\n        /* \"#utility.yul\":7063:7097   */\n      0x476f616c20616c726561647920616368696576656420736f20796f7520617265\n        /* \"#utility.yul\":7059:7060   */\n      0x00\n        /* \"#utility.yul\":7051:7057   */\n      dup3\n        /* \"#utility.yul\":7047:7061   */\n      add\n        /* \"#utility.yul\":7040:7098   */\n      mstore\n        /* \"#utility.yul\":7132:7165   */\n      0x20206e6f742061626c6520746f2066756e64207468697320616e796d6f726500\n        /* \"#utility.yul\":7127:7129   */\n      0x20\n        /* \"#utility.yul\":7119:7125   */\n      dup3\n        /* \"#utility.yul\":7115:7130   */\n      add\n        /* \"#utility.yul\":7108:7166   */\n      mstore\n        /* \"#utility.yul\":6923:7173   */\n      pop\n      jump\t// out\n        /* \"#utility.yul\":7179:7469   */\n    tag_90:\n        /* \"#utility.yul\":7319:7353   */\n      0x4f776e657220686173206465636964656420746f2073746f7020746869732066\n        /* \"#utility.yul\":7315:7316   */\n      0x00\n        /* \"#utility.yul\":7307:7313   */\n      dup3\n        /* \"#utility.yul\":7303:7317   */\n      add\n        /* \"#utility.yul\":7296:7354   */\n      mstore\n        /* \"#utility.yul\":7388:7422   */\n      0x756e6472616973696e6720666f722061207768696c652e20537461792074756e\n        /* \"#utility.yul\":7383:7385   */\n      0x20\n        /* \"#utility.yul\":7375:7381   */\n      dup3\n        /* \"#utility.yul\":7371:7386   */\n      add\n        /* \"#utility.yul\":7364:7423   */\n      mstore\n        /* \"#utility.yul\":7457:7461   */\n      0x6564000000000000000000000000000000000000000000000000000000000000\n        /* \"#utility.yul\":7452:7454   */\n      0x40\n        /* \"#utility.yul\":7444:7450   */\n      dup3\n        /* \"#utility.yul\":7440:7455   */\n      add\n        /* \"#utility.yul\":7433:7462   */\n      mstore\n        /* \"#utility.yul\":7179:7469   */\n      pop\n      jump\t// out\n        /* \"#utility.yul\":7475:7723   */\n    tag_95:\n        /* \"#utility.yul\":7615:7649   */\n      0x756e61626c6520746f20616464206d6f72652066756e64732c20636865636b20\n        /* \"#utility.yul\":7611:7612   */\n      0x00\n        /* \"#utility.yul\":7603:7609   */\n      dup3\n        /* \"#utility.yul\":7599:7613   */\n      add\n        /* \"#utility.yul\":7592:7650   */\n      mstore\n        /* \"#utility.yul\":7684:7715   */\n      0x616d6f756e742072656d61696e696e6720666f72206f757220676f616c000000\n        /* \"#utility.yul\":7679:7681   */\n      0x20\n        /* \"#utility.yul\":7671:7677   */\n      dup3\n        /* \"#utility.yul\":7667:7682   */\n      add\n        /* \"#utility.yul\":7660:7716   */\n      mstore\n        /* \"#utility.yul\":7475:7723   */\n      pop\n      jump\t// out\n        /* \"#utility.yul\":7729:7971   */\n    tag_100:\n        /* \"#utility.yul\":7869:7903   */\n      0x506c656173652061646420736f6d652066756e647320746f2020636f6e747269\n        /* \"#utility.yul\":7865:7866   */\n      0x00\n        /* \"#utility.yul\":7857:7863   */\n      dup3\n        /* \"#utility.yul\":7853:7867   */\n      add\n        /* \"#utility.yul\":7846:7904   */\n      mstore\n        /* \"#utility.yul\":7938:7963   */\n      0x627569746520746f20506c61747a692070726f6a656374000000000000000000\n        /* \"#utility.yul\":7933:7935   */\n      0x20\n        /* \"#utility.yul\":7925:7931   */\n      dup3\n        /* \"#utility.yul\":7921:7936   */\n      add\n        /* \"#utility.yul\":7914:7964   */\n      mstore\n        /* \"#utility.yul\":7729:7971   */\n      pop\n      jump\t// out\n        /* \"#utility.yul\":7977:8093   */\n    tag_61:\n        /* \"#utility.yul\":8047:8068   */\n      tag_144\n        /* \"#utility.yul\":8062:8067   */\n      dup2\n        /* \"#utility.yul\":8047:8068   */\n      tag_131\n      jump\t// in\n    tag_144:\n        /* \"#utility.yul\":8040:8045   */\n      dup2\n        /* \"#utility.yul\":8037:8069   */\n      eq\n        /* \"#utility.yul\":8027:8087   */\n      tag_145\n      jumpi\n        /* \"#utility.yul\":8083:8084   */\n      0x00\n        /* \"#utility.yul\":8080:8081   */\n      dup1\n        /* \"#utility.yul\":8073:8085   */\n      revert\n        /* \"#utility.yul\":8027:8087   */\n    tag_145:\n        /* \"#utility.yul\":7977:8093   */\n      pop\n      jump\t// out\n        /* \"#utility.yul\":8099:8221   */\n    tag_65:\n        /* \"#utility.yul\":8172:8196   */\n      tag_147\n        /* \"#utility.yul\":8190:8195   */\n      dup2\n        /* \"#utility.yul\":8172:8196   */\n      tag_104\n      jump\t// in\n    tag_147:\n        /* \"#utility.yul\":8165:8170   */\n      dup2\n        /* \"#utility.yul\":8162:8197   */\n      eq\n        /* \"#utility.yul\":8152:8215   */\n      tag_148\n      jumpi\n        /* \"#utility.yul\":8211:8212   */\n      0x00\n        /* \"#utility.yul\":8208:8209   */\n      dup1\n        /* \"#utility.yul\":8201:8213   */\n      revert\n        /* \"#utility.yul\":8152:8215   */\n    tag_148:\n        /* \"#utility.yul\":8099:8221   */\n      pop\n      jump\t// out\n\n    auxdata: 0xa2646970667358221220679c058dd424fe261e4fbad2c7f3ff1eb46aae866d4c8a3bf51a2c6c57cc884d64736f6c63430008070033\n}\n",
				"bytecode": {
					"linkReferences": {},
					"object": "608060405234801561001057600080fd5b50600060018190555033600360006101000a81548173ffffffffffffffffffffffffffffffffffffffff021916908373ffffffffffffffffffffffffffffffffffffffff160217905550600060028190555060016000806101000a81548160ff0219169083151502179055506108a88061008b6000396000f3fe60806040526004361061004a5760003560e01c8063320d7c851461004f5780634b29c448146100595780639aeb5d4814610082578063f2777e55146100ad578063f58754f8146100d8575b600080fd5b610057610101565b005b34801561006557600080fd5b50610080600480360381019061007b9190610408565b610245565b005b34801561008e57600080fd5b506100976102df565b6040516100a49190610593565b60405180910390f35b3480156100b957600080fd5b506100c26102fb565b6040516100cf9190610593565b60405180910390f35b3480156100e457600080fd5b506100ff60048036038101906100fa91906103db565b610305565b005b60008054906101000a900460ff1661014e576040517f08c379a000000000000000000000000000000000000000000000000000000000815260040161014590610533565b60405180910390fd5b60015460025410610194576040517f08c379a000000000000000000000000000000000000000000000000000000000815260040161018b90610513565b60405180910390fd5b60003414156101d8576040517f08c379a00000000000000000000000000000000000000000000000000000000081526004016101cf90610573565b60405180910390fd5b600154346002546101e991906105bf565b111561022a576040517f08c379a000000000000000000000000000000000000000000000000000000000815260040161022190610553565b60405180910390fd5b346002600082825461023c91906105bf565b92505081905550565b600360009054906101000a900473ffffffffffffffffffffffffffffffffffffffff1673ffffffffffffffffffffffffffffffffffffffff163373ffffffffffffffffffffffffffffffffffffffff16146102d5576040517f08c379a00000000000000000000000000000000000000000000000000000000081526004016102cc906104f3565b60405180910390fd5b8060018190555050565b6000806002546001546102f29190610615565b90508091505090565b6000600154905090565b600360009054906101000a900473ffffffffffffffffffffffffffffffffffffffff1673ffffffffffffffffffffffffffffffffffffffff163373ffffffffffffffffffffffffffffffffffffffff1614610395576040517f08c379a000000000000000000000000000000000000000000000000000000000815260040161038c906104f3565b60405180910390fd5b806000806101000a81548160ff02191690831515021790555050565b6000813590506103c081610844565b92915050565b6000813590506103d58161085b565b92915050565b6000602082840312156103f1576103f061068e565b5b60006103ff848285016103b1565b91505092915050565b60006020828403121561041e5761041d61068e565b5b600061042c848285016103c6565b91505092915050565b6000610442603f836105ae565b915061044d82610693565b604082019050919050565b6000610465603f836105ae565b9150610470826106e2565b604082019050919050565b60006104886042836105ae565b915061049382610731565b606082019050919050565b60006104ab603d836105ae565b91506104b6826107a6565b604082019050919050565b60006104ce6037836105ae565b91506104d9826107f5565b604082019050919050565b6104ed81610655565b82525050565b6000602082019050818103600083015261050c81610435565b9050919050565b6000602082019050818103600083015261052c81610458565b9050919050565b6000602082019050818103600083015261054c8161047b565b9050919050565b6000602082019050818103600083015261056c8161049e565b9050919050565b6000602082019050818103600083015261058c816104c1565b9050919050565b60006020820190506105a860008301846104e4565b92915050565b600082825260208201905092915050565b60006105ca82610655565b91506105d583610655565b9250827fffffffffffffffffffffffffffffffffffffffffffffffffffffffffffffffff0382111561060a5761060961065f565b5b828201905092915050565b600061062082610655565b915061062b83610655565b92508282101561063e5761063d61065f565b5b828203905092915050565b60008115159050919050565b6000819050919050565b7f4e487b7100000000000000000000000000000000000000000000000000000000600052601160045260246000fd5b600080fd5b7f596f75206e65656420746f2062652074686865206f776e65722066726f6d207460008201527f68697320636f6e747261637420746f206368616e67652074686520676f616c00602082015250565b7f476f616c20616c726561647920616368696576656420736f20796f752061726560008201527f20206e6f742061626c6520746f2066756e64207468697320616e796d6f726500602082015250565b7f4f776e657220686173206465636964656420746f2073746f702074686973206660008201527f756e6472616973696e6720666f722061207768696c652e20537461792074756e60208201527f6564000000000000000000000000000000000000000000000000000000000000604082015250565b7f756e61626c6520746f20616464206d6f72652066756e64732c20636865636b2060008201527f616d6f756e742072656d61696e696e6720666f72206f757220676f616c000000602082015250565b7f506c656173652061646420736f6d652066756e647320746f2020636f6e74726960008201527f627569746520746f20506c61747a692070726f6a656374000000000000000000602082015250565b61084d81610649565b811461085857600080fd5b50565b61086481610655565b811461086f57600080fd5b5056fea2646970667358221220679c058dd424fe261e4fbad2c7f3ff1eb46aae866d4c8a3bf51a2c6c57cc884d64736f6c63430008070033",
					"opcodes": "PUSH1 0x80 PUSH1 0x40 MSTORE CALLVALUE DUP1 ISZERO PUSH2 0x10 JUMPI PUSH1 0x0 DUP1 REVERT JUMPDEST POP PUSH1 0x0 PUSH1 0x1 DUP2 SWAP1 SSTORE POP CALLER PUSH1 0x3 PUSH1 0x0 PUSH2 0x100 EXP DUP2 SLOAD DUP2 PUSH20 0xFFFFFFFFFFFFFFFFFFFFFFFFFFFFFFFFFFFFFFFF MUL NOT AND SWAP1 DUP4 PUSH20 0xFFFFFFFFFFFFFFFFFFFFFFFFFFFFFFFFFFFFFFFF AND MUL OR SWAP1 SSTORE POP PUSH1 0x0 PUSH1 0x2 DUP2 SWAP1 SSTORE POP PUSH1 0x1 PUSH1 0x0 DUP1 PUSH2 0x100 EXP DUP2 SLOAD DUP2 PUSH1 0xFF MUL NOT AND SWAP1 DUP4 ISZERO ISZERO MUL OR SWAP1 SSTORE POP PUSH2 0x8A8 DUP1 PUSH2 0x8B PUSH1 0x0 CODECOPY PUSH1 0x0 RETURN INVALID PUSH1 0x80 PUSH1 0x40 MSTORE PUSH1 0x4 CALLDATASIZE LT PUSH2 0x4A JUMPI PUSH1 0x0 CALLDATALOAD PUSH1 0xE0 SHR DUP1 PUSH4 0x320D7C85 EQ PUSH2 0x4F JUMPI DUP1 PUSH4 0x4B29C448 EQ PUSH2 0x59 JUMPI DUP1 PUSH4 0x9AEB5D48 EQ PUSH2 0x82 JUMPI DUP1 PUSH4 0xF2777E55 EQ PUSH2 0xAD JUMPI DUP1 PUSH4 0xF58754F8 EQ PUSH2 0xD8 JUMPI JUMPDEST PUSH1 0x0 DUP1 REVERT JUMPDEST PUSH2 0x57 PUSH2 0x101 JUMP JUMPDEST STOP JUMPDEST CALLVALUE DUP1 ISZERO PUSH2 0x65 JUMPI PUSH1 0x0 DUP1 REVERT JUMPDEST POP PUSH2 0x80 PUSH1 0x4 DUP1 CALLDATASIZE SUB DUP2 ADD SWAP1 PUSH2 0x7B SWAP2 SWAP1 PUSH2 0x408 JUMP JUMPDEST PUSH2 0x245 JUMP JUMPDEST STOP JUMPDEST CALLVALUE DUP1 ISZERO PUSH2 0x8E JUMPI PUSH1 0x0 DUP1 REVERT JUMPDEST POP PUSH2 0x97 PUSH2 0x2DF JUMP JUMPDEST PUSH1 0x40 MLOAD PUSH2 0xA4 SWAP2 SWAP1 PUSH2 0x593 JUMP JUMPDEST PUSH1 0x40 MLOAD DUP1 SWAP2 SUB SWAP1 RETURN JUMPDEST CALLVALUE DUP1 ISZERO PUSH2 0xB9 JUMPI PUSH1 0x0 DUP1 REVERT JUMPDEST POP PUSH2 0xC2 PUSH2 0x2FB JUMP JUMPDEST PUSH1 0x40 MLOAD PUSH2 0xCF SWAP2 SWAP1 PUSH2 0x593 JUMP JUMPDEST PUSH1 0x40 MLOAD DUP1 SWAP2 SUB SWAP1 RETURN JUMPDEST CALLVALUE DUP1 ISZERO PUSH2 0xE4 JUMPI PUSH1 0x0 DUP1 REVERT JUMPDEST POP PUSH2 0xFF PUSH1 0x4 DUP1 CALLDATASIZE SUB DUP2 ADD SWAP1 PUSH2 0xFA SWAP2 SWAP1 PUSH2 0x3DB JUMP JUMPDEST PUSH2 0x305 JUMP JUMPDEST STOP JUMPDEST PUSH1 0x0 DUP1 SLOAD SWAP1 PUSH2 0x100 EXP SWAP1 DIV PUSH1 0xFF AND PUSH2 0x14E JUMPI PUSH1 0x40 MLOAD PUSH32 0x8C379A000000000000000000000000000000000000000000000000000000000 DUP2 MSTORE PUSH1 0x4 ADD PUSH2 0x145 SWAP1 PUSH2 0x533 JUMP JUMPDEST PUSH1 0x40 MLOAD DUP1 SWAP2 SUB SWAP1 REVERT JUMPDEST PUSH1 0x1 SLOAD PUSH1 0x2 SLOAD LT PUSH2 0x194 JUMPI PUSH1 0x40 MLOAD PUSH32 0x8C379A000000000000000000000000000000000000000000000000000000000 DUP2 MSTORE PUSH1 0x4 ADD PUSH2 0x18B SWAP1 PUSH2 0x513 JUMP JUMPDEST PUSH1 0x40 MLOAD DUP1 SWAP2 SUB SWAP1 REVERT JUMPDEST PUSH1 0x0 CALLVALUE EQ ISZERO PUSH2 0x1D8 JUMPI PUSH1 0x40 MLOAD PUSH32 0x8C379A000000000000000000000000000000000000000000000000000000000 DUP2 MSTORE PUSH1 0x4 ADD PUSH2 0x1CF SWAP1 PUSH2 0x573 JUMP JUMPDEST PUSH1 0x40 MLOAD DUP1 SWAP2 SUB SWAP1 REVERT JUMPDEST PUSH1 0x1 SLOAD CALLVALUE PUSH1 0x2 SLOAD PUSH2 0x1E9 SWAP2 SWAP1 PUSH2 0x5BF JUMP JUMPDEST GT ISZERO PUSH2 0x22A JUMPI PUSH1 0x40 MLOAD PUSH32 0x8C379A000000000000000000000000000000000000000000000000000000000 DUP2 MSTORE PUSH1 0x4 ADD PUSH2 0x221 SWAP1 PUSH2 0x553 JUMP JUMPDEST PUSH1 0x40 MLOAD DUP1 SWAP2 SUB SWAP1 REVERT JUMPDEST CALLVALUE PUSH1 0x2 PUSH1 0x0 DUP3 DUP3 SLOAD PUSH2 0x23C SWAP2 SWAP1 PUSH2 0x5BF JUMP JUMPDEST SWAP3 POP POP DUP2 SWAP1 SSTORE POP JUMP JUMPDEST PUSH1 0x3 PUSH1 0x0 SWAP1 SLOAD SWAP1 PUSH2 0x100 EXP SWAP1 DIV PUSH20 0xFFFFFFFFFFFFFFFFFFFFFFFFFFFFFFFFFFFFFFFF AND PUSH20 0xFFFFFFFFFFFFFFFFFFFFFFFFFFFFFFFFFFFFFFFF AND CALLER PUSH20 0xFFFFFFFFFFFFFFFFFFFFFFFFFFFFFFFFFFFFFFFF AND EQ PUSH2 0x2D5 JUMPI PUSH1 0x40 MLOAD PUSH32 0x8C379A000000000000000000000000000000000000000000000000000000000 DUP2 MSTORE PUSH1 0x4 ADD PUSH2 0x2CC SWAP1 PUSH2 0x4F3 JUMP JUMPDEST PUSH1 0x40 MLOAD DUP1 SWAP2 SUB SWAP1 REVERT JUMPDEST DUP1 PUSH1 0x1 DUP2 SWAP1 SSTORE POP POP JUMP JUMPDEST PUSH1 0x0 DUP1 PUSH1 0x2 SLOAD PUSH1 0x1 SLOAD PUSH2 0x2F2 SWAP2 SWAP1 PUSH2 0x615 JUMP JUMPDEST SWAP1 POP DUP1 SWAP2 POP POP SWAP1 JUMP JUMPDEST PUSH1 0x0 PUSH1 0x1 SLOAD SWAP1 POP SWAP1 JUMP JUMPDEST PUSH1 0x3 PUSH1 0x0 SWAP1 SLOAD SWAP1 PUSH2 0x100 EXP SWAP1 DIV PUSH20 0xFFFFFFFFFFFFFFFFFFFFFFFFFFFFFFFFFFFFFFFF AND PUSH20 0xFFFFFFFFFFFFFFFFFFFFFFFFFFFFFFFFFFFFFFFF AND CALLER PUSH20 0xFFFFFFFFFFFFFFFFFFFFFFFFFFFFFFFFFFFFFFFF AND EQ PUSH2 0x395 JUMPI PUSH1 0x40 MLOAD PUSH32 0x8C379A000000000000000000000000000000000000000000000000000000000 DUP2 MSTORE PUSH1 0x4 ADD PUSH2 0x38C SWAP1 PUSH2 0x4F3 JUMP JUMPDEST PUSH1 0x40 MLOAD DUP1 SWAP2 SUB SWAP1 REVERT JUMPDEST DUP1 PUSH1 0x0 DUP1 PUSH2 0x100 EXP DUP2 SLOAD DUP2 PUSH1 0xFF MUL NOT AND SWAP1 DUP4 ISZERO ISZERO MUL OR SWAP1 SSTORE POP POP JUMP JUMPDEST PUSH1 0x0 DUP2 CALLDATALOAD SWAP1 POP PUSH2 0x3C0 DUP2 PUSH2 0x844 JUMP JUMPDEST SWAP3 SWAP2 POP POP JUMP JUMPDEST PUSH1 0x0 DUP2 CALLDATALOAD SWAP1 POP PUSH2 0x3D5 DUP2 PUSH2 0x85B JUMP JUMPDEST SWAP3 SWAP2 POP POP JUMP JUMPDEST PUSH1 0x0 PUSH1 0x20 DUP3 DUP5 SUB SLT ISZERO PUSH2 0x3F1 JUMPI PUSH2 0x3F0 PUSH2 0x68E JUMP JUMPDEST JUMPDEST PUSH1 0x0 PUSH2 0x3FF DUP5 DUP3 DUP6 ADD PUSH2 0x3B1 JUMP JUMPDEST SWAP2 POP POP SWAP3 SWAP2 POP POP JUMP JUMPDEST PUSH1 0x0 PUSH1 0x20 DUP3 DUP5 SUB SLT ISZERO PUSH2 0x41E JUMPI PUSH2 0x41D PUSH2 0x68E JUMP JUMPDEST JUMPDEST PUSH1 0x0 PUSH2 0x42C DUP5 DUP3 DUP6 ADD PUSH2 0x3C6 JUMP JUMPDEST SWAP2 POP POP SWAP3 SWAP2 POP POP JUMP JUMPDEST PUSH1 0x0 PUSH2 0x442 PUSH1 0x3F DUP4 PUSH2 0x5AE JUMP JUMPDEST SWAP2 POP PUSH2 0x44D DUP3 PUSH2 0x693 JUMP JUMPDEST PUSH1 0x40 DUP3 ADD SWAP1 POP SWAP2 SWAP1 POP JUMP JUMPDEST PUSH1 0x0 PUSH2 0x465 PUSH1 0x3F DUP4 PUSH2 0x5AE JUMP JUMPDEST SWAP2 POP PUSH2 0x470 DUP3 PUSH2 0x6E2 JUMP JUMPDEST PUSH1 0x40 DUP3 ADD SWAP1 POP SWAP2 SWAP1 POP JUMP JUMPDEST PUSH1 0x0 PUSH2 0x488 PUSH1 0x42 DUP4 PUSH2 0x5AE JUMP JUMPDEST SWAP2 POP PUSH2 0x493 DUP3 PUSH2 0x731 JUMP JUMPDEST PUSH1 0x60 DUP3 ADD SWAP1 POP SWAP2 SWAP1 POP JUMP JUMPDEST PUSH1 0x0 PUSH2 0x4AB PUSH1 0x3D DUP4 PUSH2 0x5AE JUMP JUMPDEST SWAP2 POP PUSH2 0x4B6 DUP3 PUSH2 0x7A6 JUMP JUMPDEST PUSH1 0x40 DUP3 ADD SWAP1 POP SWAP2 SWAP1 POP JUMP JUMPDEST PUSH1 0x0 PUSH2 0x4CE PUSH1 0x37 DUP4 PUSH2 0x5AE JUMP JUMPDEST SWAP2 POP PUSH2 0x4D9 DUP3 PUSH2 0x7F5 JUMP JUMPDEST PUSH1 0x40 DUP3 ADD SWAP1 POP SWAP2 SWAP1 POP JUMP JUMPDEST PUSH2 0x4ED DUP2 PUSH2 0x655 JUMP JUMPDEST DUP3 MSTORE POP POP JUMP JUMPDEST PUSH1 0x0 PUSH1 0x20 DUP3 ADD SWAP1 POP DUP2 DUP2 SUB PUSH1 0x0 DUP4 ADD MSTORE PUSH2 0x50C DUP2 PUSH2 0x435 JUMP JUMPDEST SWAP1 POP SWAP2 SWAP1 POP JUMP JUMPDEST PUSH1 0x0 PUSH1 0x20 DUP3 ADD SWAP1 POP DUP2 DUP2 SUB PUSH1 0x0 DUP4 ADD MSTORE PUSH2 0x52C DUP2 PUSH2 0x458 JUMP JUMPDEST SWAP1 POP SWAP2 SWAP1 POP JUMP JUMPDEST PUSH1 0x0 PUSH1 0x20 DUP3 ADD SWAP1 POP DUP2 DUP2 SUB PUSH1 0x0 DUP4 ADD MSTORE PUSH2 0x54C DUP2 PUSH2 0x47B JUMP JUMPDEST SWAP1 POP SWAP2 SWAP1 POP JUMP JUMPDEST PUSH1 0x0 PUSH1 0x20 DUP3 ADD SWAP1 POP DUP2 DUP2 SUB PUSH1 0x0 DUP4 ADD MSTORE PUSH2 0x56C DUP2 PUSH2 0x49E JUMP JUMPDEST SWAP1 POP SWAP2 SWAP1 POP JUMP JUMPDEST PUSH1 0x0 PUSH1 0x20 DUP3 ADD SWAP1 POP DUP2 DUP2 SUB PUSH1 0x0 DUP4 ADD MSTORE PUSH2 0x58C DUP2 PUSH2 0x4C1 JUMP JUMPDEST SWAP1 POP SWAP2 SWAP1 POP JUMP JUMPDEST PUSH1 0x0 PUSH1 0x20 DUP3 ADD SWAP1 POP PUSH2 0x5A8 PUSH1 0x0 DUP4 ADD DUP5 PUSH2 0x4E4 JUMP JUMPDEST SWAP3 SWAP2 POP POP JUMP JUMPDEST PUSH1 0x0 DUP3 DUP3 MSTORE PUSH1 0x20 DUP3 ADD SWAP1 POP SWAP3 SWAP2 POP POP JUMP JUMPDEST PUSH1 0x0 PUSH2 0x5CA DUP3 PUSH2 0x655 JUMP JUMPDEST SWAP2 POP PUSH2 0x5D5 DUP4 PUSH2 0x655 JUMP JUMPDEST SWAP3 POP DUP3 PUSH32 0xFFFFFFFFFFFFFFFFFFFFFFFFFFFFFFFFFFFFFFFFFFFFFFFFFFFFFFFFFFFFFFFF SUB DUP3 GT ISZERO PUSH2 0x60A JUMPI PUSH2 0x609 PUSH2 0x65F JUMP JUMPDEST JUMPDEST DUP3 DUP3 ADD SWAP1 POP SWAP3 SWAP2 POP POP JUMP JUMPDEST PUSH1 0x0 PUSH2 0x620 DUP3 PUSH2 0x655 JUMP JUMPDEST SWAP2 POP PUSH2 0x62B DUP4 PUSH2 0x655 JUMP JUMPDEST SWAP3 POP DUP3 DUP3 LT ISZERO PUSH2 0x63E JUMPI PUSH2 0x63D PUSH2 0x65F JUMP JUMPDEST JUMPDEST DUP3 DUP3 SUB SWAP1 POP SWAP3 SWAP2 POP POP JUMP JUMPDEST PUSH1 0x0 DUP2 ISZERO ISZERO SWAP1 POP SWAP2 SWAP1 POP JUMP JUMPDEST PUSH1 0x0 DUP2 SWAP1 POP SWAP2 SWAP1 POP JUMP JUMPDEST PUSH32 0x4E487B7100000000000000000000000000000000000000000000000000000000 PUSH1 0x0 MSTORE PUSH1 0x11 PUSH1 0x4 MSTORE PUSH1 0x24 PUSH1 0x0 REVERT JUMPDEST PUSH1 0x0 DUP1 REVERT JUMPDEST PUSH32 0x596F75206E65656420746F2062652074686865206F776E65722066726F6D2074 PUSH1 0x0 DUP3 ADD MSTORE PUSH32 0x68697320636F6E747261637420746F206368616E67652074686520676F616C00 PUSH1 0x20 DUP3 ADD MSTORE POP JUMP JUMPDEST PUSH32 0x476F616C20616C726561647920616368696576656420736F20796F7520617265 PUSH1 0x0 DUP3 ADD MSTORE PUSH32 0x20206E6F742061626C6520746F2066756E64207468697320616E796D6F726500 PUSH1 0x20 DUP3 ADD MSTORE POP JUMP JUMPDEST PUSH32 0x4F776E657220686173206465636964656420746F2073746F7020746869732066 PUSH1 0x0 DUP3 ADD MSTORE PUSH32 0x756E6472616973696E6720666F722061207768696C652E20537461792074756E PUSH1 0x20 DUP3 ADD MSTORE PUSH32 0x6564000000000000000000000000000000000000000000000000000000000000 PUSH1 0x40 DUP3 ADD MSTORE POP JUMP JUMPDEST PUSH32 0x756E61626C6520746F20616464206D6F72652066756E64732C20636865636B20 PUSH1 0x0 DUP3 ADD MSTORE PUSH32 0x616D6F756E742072656D61696E696E6720666F72206F757220676F616C000000 PUSH1 0x20 DUP3 ADD MSTORE POP JUMP JUMPDEST PUSH32 0x506C656173652061646420736F6D652066756E647320746F2020636F6E747269 PUSH1 0x0 DUP3 ADD MSTORE PUSH32 0x627569746520746F20506C61747A692070726F6A656374000000000000000000 PUSH1 0x20 DUP3 ADD MSTORE POP JUMP JUMPDEST PUSH2 0x84D DUP2 PUSH2 0x649 JUMP JUMPDEST DUP2 EQ PUSH2 0x858 JUMPI PUSH1 0x0 DUP1 REVERT JUMPDEST POP JUMP JUMPDEST PUSH2 0x864 DUP2 PUSH2 0x655 JUMP JUMPDEST DUP2 EQ PUSH2 0x86F JUMPI PUSH1 0x0 DUP1 REVERT JUMPDEST POP JUMP INVALID LOG2 PUSH5 0x6970667358 0x22 SLT KECCAK256 PUSH8 0x9C058DD424FE261E 0x4F 0xBA 0xD2 0xC7 RETURN SELFDESTRUCT 0x1E 0xB4 PUSH11 0xAE866D4C8A3BF51A2C6C57 0xCC DUP9 0x4D PUSH5 0x736F6C6343 STOP ADDMOD SMOD STOP CALLER "
				},
				"gasEstimates": {
					"creation": {
						"codeDepositCost": "443200",
						"executionCost": "59041",
						"totalCost": "502241"
					},
					"external": {
						"changeProjectState(bool)": "26915",
						"fundproject()": "infinite",
						"setGoal(uint256)": "24690",
						"viewGoal()": "2481",
						"viewRemaining()": "infinite"
					}
				},
				"methodIdentifiers": {
					"changeProjectState(bool)": "f58754f8",
					"fundproject()": "320d7c85",
					"setGoal(uint256)": "4b29c448",
					"viewGoal()": "f2777e55",
					"viewRemaining()": "9aeb5d48"
				}
			},
			"storageLayout": {
				"storage": [
					{
						"astId": 3,
						"contract": "contracts/1_Storage.sol:platziProject",
						"label": "isFundable",
						"offset": 0,
						"slot": "0",
						"type": "t_bool"
					},
					{
						"astId": 5,
						"contract": "contracts/1_Storage.sol:platziProject",
						"label": "Goal",
						"offset": 0,
						"slot": "1",
						"type": "t_uint256"
					},
					{
						"astId": 7,
						"contract": "contracts/1_Storage.sol:platziProject",
						"label": "totalFunded",
						"offset": 0,
						"slot": "2",
						"type": "t_uint256"
					},
					{
						"astId": 9,
						"contract": "contracts/1_Storage.sol:platziProject",
						"label": "owner",
						"offset": 0,
						"slot": "3",
						"type": "t_address"
					},
					{
						"astId": 11,
						"contract": "contracts/1_Storage.sol:platziProject",
						"label": "requiredFunds",
						"offset": 0,
						"slot": "4",
						"type": "t_uint256"
					}
				],
				"types": {
					"t_address": {
						"encoding": "inplace",
						"label": "address",
						"numberOfBytes": "20"
					},
					"t_bool": {
						"encoding": "inplace",
						"label": "bool",
						"numberOfBytes": "1"
					},
					"t_uint256": {
						"encoding": "inplace",
						"label": "uint256",
						"numberOfBytes": "32"
					}
				}
			},
			"userdoc": {
				"kind": "user",
				"methods": {},
				"version": 1
			}
		}
	}
}